{
  "_format": "hh-sol-artifact-1",
  "contractName": "Game",
  "sourceName": "contracts/Game.sol",
  "abi": [
    {
      "inputs": [],
      "stateMutability": "nonpayable",
      "type": "constructor"
    },
    {
      "anonymous": false,
      "inputs": [
        {
          "indexed": true,
          "internalType": "uint256",
          "name": "roomNumber",
          "type": "uint256"
        },
        {
          "indexed": true,
          "internalType": "address",
          "name": "winner",
          "type": "address"
        }
      ],
      "name": "GameCompleted",
      "type": "event"
    },
    {
      "anonymous": false,
      "inputs": [
        {
          "indexed": true,
          "internalType": "uint256",
          "name": "roomNumber",
          "type": "uint256"
        },
        {
          "indexed": true,
          "internalType": "address",
          "name": "creator",
          "type": "address"
        },
        {
          "indexed": false,
          "internalType": "uint8",
          "name": "gameType",
          "type": "uint8"
        }
      ],
      "name": "GameInitialized",
      "type": "event"
    },
    {
      "anonymous": false,
      "inputs": [
        {
          "indexed": true,
          "internalType": "uint256",
          "name": "roomNumber",
          "type": "uint256"
        },
        {
          "indexed": true,
          "internalType": "address",
          "name": "player",
          "type": "address"
        }
      ],
      "name": "PlayerJoined",
      "type": "event"
    },
    {
      "inputs": [],
      "name": "adminResetGame",
      "outputs": [],
      "stateMutability": "nonpayable",
      "type": "function"
    },
    {
      "inputs": [
        {
          "internalType": "address",
          "name": "user",
          "type": "address"
        }
      ],
      "name": "completeGame",
      "outputs": [],
      "stateMutability": "nonpayable",
      "type": "function"
    },
    {
      "inputs": [],
      "name": "gameStartTime",
      "outputs": [
        {
          "internalType": "uint256",
          "name": "",
          "type": "uint256"
        }
      ],
      "stateMutability": "view",
      "type": "function"
    },
    {
      "inputs": [],
      "name": "gameType",
      "outputs": [
        {
          "internalType": "uint8",
          "name": "",
          "type": "uint8"
        }
      ],
      "stateMutability": "view",
      "type": "function"
    },
    {
      "inputs": [
        {
          "internalType": "uint256",
          "name": "_roomNumber",
          "type": "uint256"
        }
      ],
      "name": "getGameDetails",
      "outputs": [
        {
          "internalType": "address",
          "name": "winner",
          "type": "address"
        },
        {
          "internalType": "uint256",
          "name": "timeTaken",
          "type": "uint256"
        },
        {
          "internalType": "uint8",
          "name": "gameTypeResult",
          "type": "uint8"
        }
      ],
      "stateMutability": "view",
      "type": "function"
    },
    {
      "inputs": [
        {
          "internalType": "address",
          "name": "creator",
          "type": "address"
        },
        {
          "internalType": "uint8",
          "name": "_gameType",
          "type": "uint8"
        },
        {
          "internalType": "uint256",
          "name": "_roomNumber",
          "type": "uint256"
        }
      ],
      "name": "initializeGame",
      "outputs": [],
      "stateMutability": "nonpayable",
      "type": "function"
    },
    {
      "inputs": [],
      "name": "isGameReady",
      "outputs": [
        {
          "internalType": "bool",
          "name": "",
          "type": "bool"
        }
      ],
      "stateMutability": "view",
      "type": "function"
    },
    {
      "inputs": [
        {
          "internalType": "address",
          "name": "player",
          "type": "address"
        }
      ],
      "name": "joinGame",
      "outputs": [],
      "stateMutability": "nonpayable",
      "type": "function"
    },
    {
      "inputs": [],
      "name": "player1",
      "outputs": [
        {
          "internalType": "address",
          "name": "",
          "type": "address"
        }
      ],
      "stateMutability": "view",
      "type": "function"
    },
    {
      "inputs": [],
      "name": "player1Completed",
      "outputs": [
        {
          "internalType": "bool",
          "name": "",
          "type": "bool"
        }
      ],
      "stateMutability": "view",
      "type": "function"
    },
    {
      "inputs": [],
      "name": "player1Joined",
      "outputs": [
        {
          "internalType": "bool",
          "name": "",
          "type": "bool"
        }
      ],
      "stateMutability": "view",
      "type": "function"
    },
    {
      "inputs": [],
      "name": "player2",
      "outputs": [
        {
          "internalType": "address",
          "name": "",
          "type": "address"
        }
      ],
      "stateMutability": "view",
      "type": "function"
    },
    {
      "inputs": [],
      "name": "player2Completed",
      "outputs": [
        {
          "internalType": "bool",
          "name": "",
          "type": "bool"
        }
      ],
      "stateMutability": "view",
      "type": "function"
    },
    {
      "inputs": [],
      "name": "player2Joined",
      "outputs": [
        {
          "internalType": "bool",
          "name": "",
          "type": "bool"
        }
      ],
      "stateMutability": "view",
      "type": "function"
    },
    {
      "inputs": [],
      "name": "roomNumber",
      "outputs": [
        {
          "internalType": "uint256",
          "name": "",
          "type": "uint256"
        }
      ],
      "stateMutability": "view",
      "type": "function"
    }
  ],
  "bytecode": "0x608060405234801561001057600080fd5b50610fb6806100206000396000f3fe608060405234801561001057600080fd5b50600436106100f55760003560e01c80639ae98f6e11610097578063d23b96a111610066578063d23b96a114610240578063d30895e41461025e578063d52b3c1c1461027c578063e60d8fb214610298576100f5565b80639ae98f6e146101dc578063a8bde929146101fa578063bbdc02db14610218578063c5797ae714610236576100f5565b80632389a290116100d35780632389a29014610168578063303aae941461018457806359a5f12d146101a2578063727e6366146101c0576100f5565b80630252b995146100fa5780631b31abda146101185780631e757b1a1461014a575b600080fd5b6101026102b6565b60405161010f9190610a33565b60405180910390f35b610132600480360381019061012d9190610a7f565b6102bc565b60405161014193929190610b09565b60405180910390f35b6101526103eb565b60405161015f9190610b5b565b60405180910390f35b610182600480360381019061017d9190610ba2565b6103fe565b005b61018c61058a565b6040516101999190610b5b565b60405180910390f35b6101aa61059d565b6040516101b79190610bcf565b60405180910390f35b6101da60048036038101906101d59190610c16565b6105c3565b005b6101e4610726565b6040516101f19190610b5b565b60405180910390f35b610202610739565b60405161020f9190610b5b565b60405180910390f35b61022061074c565b60405161022d9190610c69565b60405180910390f35b61023e61075f565b005b610248610769565b6040516102559190610a33565b60405180910390f35b61026661076f565b6040516102739190610bcf565b60405180910390f35b61029660048036038101906102919190610ba2565b610795565b005b6102a06108f1565b6040516102ad9190610b5b565b60405180910390f35b60055481565b60008060006004548414610305576040517f08c379a00000000000000000000000000000000000000000000000000000000081526004016102fc90610ce1565b60405180910390fd5b600660029054906101000a900460ff16801561032d5750600660039054906101000a900460ff165b61036c576040517f08c379a000000000000000000000000000000000000000000000000000000000815260040161036390610d4d565b60405180910390fd5b60015460005410156103a757600260009054906101000a900473ffffffffffffffffffffffffffffffffffffffff16925060005491506103d2565b600360009054906101000a900473ffffffffffffffffffffffffffffffffffffffff16925060015491505b600360149054906101000a900460ff1690509193909250565b600660019054906101000a900460ff1681565b600660019054906101000a900460ff161561044e576040517f08c379a000000000000000000000000000000000000000000000000000000000815260040161044590610db9565b60405180910390fd5b600260009054906101000a900473ffffffffffffffffffffffffffffffffffffffff1673ffffffffffffffffffffffffffffffffffffffff168173ffffffffffffffffffffffffffffffffffffffff16036104de576040517f08c379a00000000000000000000000000000000000000000000000000000000081526004016104d590610e25565b60405180910390fd5b80600360006101000a81548173ffffffffffffffffffffffffffffffffffffffff021916908373ffffffffffffffffffffffffffffffffffffffff1602179055506001600660016101000a81548160ff021916908315150217905550426005819055508073ffffffffffffffffffffffffffffffffffffffff166004547f87969bc7faf902221a147b95ceba76e011c5efb0339a0a8ee7a2bb82d9cfbbd660405160405180910390a350565b600660029054906101000a900460ff1681565b600360009054906101000a900473ffffffffffffffffffffffffffffffffffffffff1681565b600073ffffffffffffffffffffffffffffffffffffffff16600260009054906101000a900473ffffffffffffffffffffffffffffffffffffffff1673ffffffffffffffffffffffffffffffffffffffff1614610654576040517f08c379a000000000000000000000000000000000000000000000000000000000815260040161064b90610e91565b60405180910390fd5b82600260006101000a81548173ffffffffffffffffffffffffffffffffffffffff021916908373ffffffffffffffffffffffffffffffffffffffff1602179055506001600660006101000a81548160ff02191690831515021790555081600360146101000a81548160ff021916908360ff160217905550806004819055508273ffffffffffffffffffffffffffffffffffffffff16817f0bf549d82379e8c0a986563b3fdda3a870c2efca9996a0b7e2e7bf0ad391a693846040516107199190610c69565b60405180910390a3505050565b600660009054906101000a900460ff1681565b600660039054906101000a900460ff1681565b600360149054906101000a900460ff1681565b610767610920565b565b60045481565b600260009054906101000a900473ffffffffffffffffffffffffffffffffffffffff1681565b600260009054906101000a900473ffffffffffffffffffffffffffffffffffffffff1673ffffffffffffffffffffffffffffffffffffffff168173ffffffffffffffffffffffffffffffffffffffff160361086e57600660029054906101000a900460ff161561083a576040517f08c379a000000000000000000000000000000000000000000000000000000000815260040161083190610efd565b60405180910390fd5b6001600660026101000a81548160ff021916908315150217905550600554426108639190610f4c565b6000819055506108ee565b600660039054906101000a900460ff16156108be576040517f08c379a00000000000000000000000000000000000000000000000000000000081526004016108b590610efd565b60405180910390fd5b6001600660036101000a81548160ff021916908315150217905550600554426108e79190610f4c565b6001819055505b50565b6000600660009054906101000a900460ff16801561091b5750600660019054906101000a900460ff165b905090565b6000600260006101000a81548173ffffffffffffffffffffffffffffffffffffffff021916908373ffffffffffffffffffffffffffffffffffffffff1602179055506000600360006101000a81548173ffffffffffffffffffffffffffffffffffffffff021916908373ffffffffffffffffffffffffffffffffffffffff1602179055506000600660006101000a81548160ff0219169083151502179055506000600660016101000a81548160ff0219169083151502179055506000600660026101000a81548160ff0219169083151502179055506000600660036101000a81548160ff0219169083151502179055506000600581905550565b6000819050919050565b610a2d81610a1a565b82525050565b6000602082019050610a486000830184610a24565b92915050565b600080fd5b610a5c81610a1a565b8114610a6757600080fd5b50565b600081359050610a7981610a53565b92915050565b600060208284031215610a9557610a94610a4e565b5b6000610aa384828501610a6a565b91505092915050565b600073ffffffffffffffffffffffffffffffffffffffff82169050919050565b6000610ad782610aac565b9050919050565b610ae781610acc565b82525050565b600060ff82169050919050565b610b0381610aed565b82525050565b6000606082019050610b1e6000830186610ade565b610b2b6020830185610a24565b610b386040830184610afa565b949350505050565b60008115159050919050565b610b5581610b40565b82525050565b6000602082019050610b706000830184610b4c565b92915050565b610b7f81610acc565b8114610b8a57600080fd5b50565b600081359050610b9c81610b76565b92915050565b600060208284031215610bb857610bb7610a4e565b5b6000610bc684828501610b8d565b91505092915050565b6000602082019050610be46000830184610ade565b92915050565b610bf381610aed565b8114610bfe57600080fd5b50565b600081359050610c1081610bea565b92915050565b600080600060608486031215610c2f57610c2e610a4e565b5b6000610c3d86828701610b8d565b9350506020610c4e86828701610c01565b9250506040610c5f86828701610a6a565b9150509250925092565b6000602082019050610c7e6000830184610afa565b92915050565b600082825260208201905092915050565b7f496e76616c696420726f6f6d206e756d62657200000000000000000000000000600082015250565b6000610ccb601383610c84565b9150610cd682610c95565b602082019050919050565b60006020820190508181036000830152610cfa81610cbe565b9050919050565b7f47616d65206e6f7420636f6d706c657465640000000000000000000000000000600082015250565b6000610d37601283610c84565b9150610d4282610d01565b602082019050919050565b60006020820190508181036000830152610d6681610d2a565b9050919050565b7f47616d652069732066756c6c0000000000000000000000000000000000000000600082015250565b6000610da3600c83610c84565b9150610dae82610d6d565b602082019050919050565b60006020820190508181036000830152610dd281610d96565b9050919050565b7f43616e6e6f74206a6f696e206f776e2067616d65000000000000000000000000600082015250565b6000610e0f601483610c84565b9150610e1a82610dd9565b602082019050919050565b60006020820190508181036000830152610e3e81610e02565b9050919050565b7f47616d6520616c726561647920696e697469616c697a65640000000000000000600082015250565b6000610e7b601883610c84565b9150610e8682610e45565b602082019050919050565b60006020820190508181036000830152610eaa81610e6e565b9050919050565b7f416c726561647920636f6d706c65746564000000000000000000000000000000600082015250565b6000610ee7601183610c84565b9150610ef282610eb1565b602082019050919050565b60006020820190508181036000830152610f1681610eda565b9050919050565b7f4e487b7100000000000000000000000000000000000000000000000000000000600052601160045260246000fd5b6000610f5782610a1a565b9150610f6283610a1a565b9250828203905081811115610f7a57610f79610f1d565b5b9291505056fea264697066735822122009083cc6a0277e9a5fb2820dd44345e965bd35e12e4ecaa979fc0df50074a40564736f6c63430008110033",
  "linkReferences": {},
  "deployedLinkReferences": {}
}